{
  "contractName": "MyArrayStore",
  "abi": [
    {
      "constant": true,
      "inputs": [
        {
          "internalType": "uint256",
          "name": "",
          "type": "uint256"
        }
      ],
      "name": "myArray",
      "outputs": [
        {
          "internalType": "string",
          "name": "",
          "type": "string"
        }
      ],
      "payable": false,
      "stateMutability": "view",
      "type": "function"
    },
    {
      "constant": false,
      "inputs": [
        {
          "internalType": "string[]",
          "name": "setArray",
          "type": "string[]"
        }
      ],
      "name": "set",
      "outputs": [],
      "payable": false,
      "stateMutability": "nonpayable",
      "type": "function"
    },
    {
      "constant": true,
      "inputs": [],
      "name": "getArray",
      "outputs": [
        {
          "internalType": "string[]",
          "name": "",
          "type": "string[]"
        }
      ],
      "payable": false,
      "stateMutability": "view",
      "type": "function"
    }
  ],
  "bytecode": "0x608060405260405180602001604052806040518060400160405280600581526020017f7374722031000000000000000000000000000000000000000000000000000000815250815250600090600161005892919061006b565b5034801561006557600080fd5b506101e4565b8280548282559060005260206000209081019282156100ba579160200282015b828111156100b95782518290805190602001906100a99291906100cb565b509160200191906001019061008b565b5b5090506100c7919061014b565b5090565b828054600181600116156101000203166002900490600052602060002090601f016020900481019282601f1061010c57805160ff191683800117855561013a565b8280016001018555821561013a579182015b8281111561013957825182559160200191906001019061011e565b5b5090506101479190610177565b5090565b61017491905b808211156101705760008181610167919061019c565b50600101610151565b5090565b90565b61019991905b8082111561019557600081600090555060010161017d565b5090565b90565b50805460018160011615610100020316600290046000825580601f106101c257506101e1565b601f0160209004906000526020600020908101906101e09190610177565b5b50565b610809806101f36000396000f3fe608060405234801561001057600080fd5b50600436106100415760003560e01c806352e66db814610046578063cc3e57d914610062578063d504ea1d14610092575b600080fd5b610060600480360361005b91908101906104c2565b6100b0565b005b61007c60048036036100779190810190610503565b6100ca565b6040516100899190610649565b60405180910390f35b61009a610183565b6040516100a79190610627565b60405180910390f35b80600090805190602001906100c692919061026c565b5050565b600081815481106100d757fe5b906000526020600020016000915090508054600181600116156101000203166002900480601f01602080910402602001604051908101604052809291908181526020018280546001816001161561010002031660029004801561017b5780601f106101505761010080835404028352916020019161017b565b820191906000526020600020905b81548152906001019060200180831161015e57829003601f168201915b505050505081565b60606000805480602002602001604051908101604052809291908181526020016000905b82821015610263578382906000526020600020018054600181600116156101000203166002900480601f01602080910402602001604051908101604052809291908181526020018280546001816001161561010002031660029004801561024f5780601f106102245761010080835404028352916020019161024f565b820191906000526020600020905b81548152906001019060200180831161023257829003601f168201915b5050505050815260200190600101906101a7565b50505050905090565b8280548282559060005260206000209081019282156102bb579160200282015b828111156102ba5782518290805190602001906102aa9291906102cc565b509160200191906001019061028c565b5b5090506102c8919061034c565b5090565b828054600181600116156101000203166002900490600052602060002090601f016020900481019282601f1061030d57805160ff191683800117855561033b565b8280016001018555821561033b579182015b8281111561033a57825182559160200191906001019061031f565b5b5090506103489190610378565b5090565b61037591905b808211156103715760008181610368919061039d565b50600101610352565b5090565b90565b61039a91905b8082111561039657600081600090555060010161037e565b5090565b90565b50805460018160011615610100020316600290046000825580601f106103c357506103e2565b601f0160209004906000526020600020908101906103e19190610378565b5b50565b600082601f8301126103f657600080fd5b813561040961040482610698565b61066b565b9150818183526020840193506020810190508360005b8381101561044f57813586016104358882610459565b84526020840193506020830192505060018101905061041f565b5050505092915050565b600082601f83011261046a57600080fd5b813561047d610478826106c0565b61066b565b9150808252602083016020830185838301111561049957600080fd5b6104a483828461075c565b50505092915050565b6000813590506104bc816107af565b92915050565b6000602082840312156104d457600080fd5b600082013567ffffffffffffffff8111156104ee57600080fd5b6104fa848285016103e5565b91505092915050565b60006020828403121561051557600080fd5b6000610523848285016104ad565b91505092915050565b600061053883836105b5565b905092915050565b600061054b826106fc565b610555818561071f565b935083602082028501610567856106ec565b8060005b858110156105a35784840389528151610584858261052c565b945061058f83610712565b925060208a0199505060018101905061056b565b50829750879550505050505092915050565b60006105c082610707565b6105ca8185610730565b93506105da81856020860161076b565b6105e38161079e565b840191505092915050565b60006105f982610707565b6106038185610741565b935061061381856020860161076b565b61061c8161079e565b840191505092915050565b600060208201905081810360008301526106418184610540565b905092915050565b6000602082019050818103600083015261066381846105ee565b905092915050565b6000604051905081810181811067ffffffffffffffff8211171561068e57600080fd5b8060405250919050565b600067ffffffffffffffff8211156106af57600080fd5b602082029050602081019050919050565b600067ffffffffffffffff8211156106d757600080fd5b601f19601f8301169050602081019050919050565b6000819050602082019050919050565b600081519050919050565b600081519050919050565b6000602082019050919050565b600082825260208201905092915050565b600082825260208201905092915050565b600082825260208201905092915050565b6000819050919050565b82818337600083830152505050565b60005b8381101561078957808201518184015260208101905061076e565b83811115610798576000848401525b50505050565b6000601f19601f8301169050919050565b6107b881610752565b81146107c357600080fd5b5056fea365627a7a723158204c1622423bf343b67ecc68b024c7ff7c1d59077673d45e9a13fc7db90cab24d96c6578706572696d656e74616cf564736f6c63430005100040",
  "source": "// SPDX-License-Identifier: MIT\r\npragma solidity >=0.4.22 <0.8.0;\r\npragma experimental ABIEncoderV2;\r\n\r\ncontract MyArrayStore {\r\n    string[] public myArray = [\"str 1\"];\r\n\r\n    function set(string[] memory setArray) public {\r\n        myArray = setArray;\r\n    }\r\n\r\n    function getArray() public view returns (string[] memory) {\r\n        return myArray;\r\n    }\r\n}",
  "sourcePath": "C:/Users/ricol/Documents/repo codeboxx/week-12/team-project/Rocket_Elevators_Smart_Contracts/contracts/MyArrayStore.sol",
  "compiler": {
    "name": "solc",
    "version": "0.5.16+commit.9c3226ce.Emscripten.clang"
  },
  "schemaVersion": "3.3.2",
  "updatedAt": "2020-12-09T15:34:48.976Z",
  "networkType": "ethereum",
  "devdoc": {
    "methods": {}
  },
  "userdoc": {
    "methods": {}
  }
}