{
  "contractName": "QualityTest",
  "abi": [
    {
      "constant": true,
      "inputs": [
        {
          "internalType": "int256",
          "name": "",
          "type": "int256"
        }
      ],
      "name": "buildings",
      "outputs": [
        {
          "internalType": "int256",
          "name": "id",
          "type": "int256"
        },
        {
          "internalType": "string",
          "name": "buildingAddress",
          "type": "string"
        },
        {
          "internalType": "string",
          "name": "operatingPermit",
          "type": "string"
        },
        {
          "internalType": "string",
          "name": "conformityCertificate",
          "type": "string"
        },
        {
          "internalType": "string",
          "name": "elevatorDoorTest",
          "type": "string"
        },
        {
          "internalType": "string",
          "name": "elevatorCableTest",
          "type": "string"
        },
        {
          "internalType": "string",
          "name": "elevatorBreakTest",
          "type": "string"
        }
      ],
      "payable": false,
      "stateMutability": "view",
      "type": "function"
    },
    {
      "constant": true,
      "inputs": [
        {
          "internalType": "int256",
          "name": "",
          "type": "int256"
        }
      ],
      "name": "employee",
      "outputs": [
        {
          "internalType": "address",
          "name": "",
          "type": "address"
        }
      ],
      "payable": false,
      "stateMutability": "view",
      "type": "function"
    },
    {
      "constant": false,
      "inputs": [
        {
          "internalType": "int256",
          "name": "_id",
          "type": "int256"
        },
        {
          "internalType": "bool",
          "name": "isTestPassed",
          "type": "bool"
        },
        {
          "internalType": "string",
          "name": "_operatingPermit",
          "type": "string"
        },
        {
          "internalType": "string",
          "name": "_conformityCertificate",
          "type": "string"
        },
        {
          "internalType": "string",
          "name": "_buildingAddress",
          "type": "string"
        }
      ],
      "name": "createContract",
      "outputs": [],
      "payable": false,
      "stateMutability": "nonpayable",
      "type": "function"
    },
    {
      "constant": true,
      "inputs": [
        {
          "internalType": "int256",
          "name": "_id",
          "type": "int256"
        }
      ],
      "name": "getBuilding",
      "outputs": [
        {
          "components": [
            {
              "internalType": "int256",
              "name": "id",
              "type": "int256"
            },
            {
              "internalType": "string",
              "name": "buildingAddress",
              "type": "string"
            },
            {
              "internalType": "string",
              "name": "operatingPermit",
              "type": "string"
            },
            {
              "internalType": "string",
              "name": "conformityCertificate",
              "type": "string"
            },
            {
              "internalType": "string",
              "name": "elevatorDoorTest",
              "type": "string"
            },
            {
              "internalType": "string",
              "name": "elevatorCableTest",
              "type": "string"
            },
            {
              "internalType": "string",
              "name": "elevatorBreakTest",
              "type": "string"
            }
          ],
          "internalType": "struct QualityTest.Building",
          "name": "",
          "type": "tuple"
        }
      ],
      "payable": false,
      "stateMutability": "view",
      "type": "function"
    }
  ],
  "bytecode": "0x608060405234801561001057600080fd5b50611134806100206000396000f3fe608060405234801561001057600080fd5b506004361061004c5760003560e01c806342f7bd7514610051578063472570ab14610081578063645fb652146100b1578063ca0932b4146100cd575b600080fd5b61006b60048036036100669190810190610c86565b610103565b6040516100789190610ecc565b60405180910390f35b61009b60048036036100969190810190610c86565b610136565b6040516100a89190610f80565b60405180910390f35b6100cb60048036036100c69190810190610caf565b610539565b005b6100e760048036036100e29190810190610c86565b610754565b6040516100fa9796959493929190610ee7565b60405180910390f35b60006020528060005260406000206000915054906101000a900473ffffffffffffffffffffffffffffffffffffffff1681565b61013e610b26565b600160008381526020019081526020016000206040518060e001604052908160008201548152602001600182018054600181600116156101000203166002900480601f0160208091040260200160405190810160405280929190818152602001828054600181600116156101000203166002900480156101ff5780601f106101d4576101008083540402835291602001916101ff565b820191906000526020600020905b8154815290600101906020018083116101e257829003601f168201915b50505050508152602001600282018054600181600116156101000203166002900480601f0160208091040260200160405190810160405280929190818152602001828054600181600116156101000203166002900480156102a15780601f10610276576101008083540402835291602001916102a1565b820191906000526020600020905b81548152906001019060200180831161028457829003601f168201915b50505050508152602001600382018054600181600116156101000203166002900480601f0160208091040260200160405190810160405280929190818152602001828054600181600116156101000203166002900480156103435780601f1061031857610100808354040283529160200191610343565b820191906000526020600020905b81548152906001019060200180831161032657829003601f168201915b50505050508152602001600482018054600181600116156101000203166002900480601f0160208091040260200160405190810160405280929190818152602001828054600181600116156101000203166002900480156103e55780601f106103ba576101008083540402835291602001916103e5565b820191906000526020600020905b8154815290600101906020018083116103c857829003601f168201915b50505050508152602001600582018054600181600116156101000203166002900480601f0160208091040260200160405190810160405280929190818152602001828054600181600116156101000203166002900480156104875780601f1061045c57610100808354040283529160200191610487565b820191906000526020600020905b81548152906001019060200180831161046a57829003601f168201915b50505050508152602001600682018054600181600116156101000203166002900480601f0160208091040260200160405190810160405280929190818152602001828054600181600116156101000203166002900480156105295780601f106104fe57610100808354040283529160200191610529565b820191906000526020600020905b81548152906001019060200180831161050c57829003601f168201915b5050505050815250509050919050565b831561074d573360008087815260200190815260200160002060006101000a81548173ffffffffffffffffffffffffffffffffffffffff021916908373ffffffffffffffffffffffffffffffffffffffff160217905550846001600087815260200190815260200160002060000181905550806001600087815260200190815260200160002060010190805190602001906105d5929190610b63565b5082600160008781526020019081526020016000206002019080519060200190610600929190610b63565b508160016000878152602001908152602001600020600301908051906020019061062b929190610b63565b506040518060400160405280600681526020017f506173736564000000000000000000000000000000000000000000000000000081525060016000878152602001908152602001600020600401908051906020019061068b929190610b63565b506040518060400160405280600681526020017f50617373656400000000000000000000000000000000000000000000000000008152506001600087815260200190815260200160002060050190805190602001906106eb929190610b63565b506040518060400160405280600681526020017f506173736564000000000000000000000000000000000000000000000000000081525060016000878152602001908152602001600020600601908051906020019061074b929190610b63565b505b5050505050565b6001602052806000526040600020600091509050806000015490806001018054600181600116156101000203166002900480601f0160208091040260200160405190810160405280929190818152602001828054600181600116156101000203166002900480156108065780601f106107db57610100808354040283529160200191610806565b820191906000526020600020905b8154815290600101906020018083116107e957829003601f168201915b505050505090806002018054600181600116156101000203166002900480601f0160208091040260200160405190810160405280929190818152602001828054600181600116156101000203166002900480156108a45780601f10610879576101008083540402835291602001916108a4565b820191906000526020600020905b81548152906001019060200180831161088757829003601f168201915b505050505090806003018054600181600116156101000203166002900480601f0160208091040260200160405190810160405280929190818152602001828054600181600116156101000203166002900480156109425780601f1061091757610100808354040283529160200191610942565b820191906000526020600020905b81548152906001019060200180831161092557829003601f168201915b505050505090806004018054600181600116156101000203166002900480601f0160208091040260200160405190810160405280929190818152602001828054600181600116156101000203166002900480156109e05780601f106109b5576101008083540402835291602001916109e0565b820191906000526020600020905b8154815290600101906020018083116109c357829003601f168201915b505050505090806005018054600181600116156101000203166002900480601f016020809104026020016040519081016040528092919081815260200182805460018160011615610100020316600290048015610a7e5780601f10610a5357610100808354040283529160200191610a7e565b820191906000526020600020905b815481529060010190602001808311610a6157829003601f168201915b505050505090806006018054600181600116156101000203166002900480601f016020809104026020016040519081016040528092919081815260200182805460018160011615610100020316600290048015610b1c5780601f10610af157610100808354040283529160200191610b1c565b820191906000526020600020905b815481529060010190602001808311610aff57829003601f168201915b5050505050905087565b6040518060e00160405280600081526020016060815260200160608152602001606081526020016060815260200160608152602001606081525090565b828054600181600116156101000203166002900490600052602060002090601f016020900481019282601f10610ba457805160ff1916838001178555610bd2565b82800160010185558215610bd2579182015b82811115610bd1578251825591602001919060010190610bb6565b5b509050610bdf9190610be3565b5090565b610c0591905b80821115610c01576000816000905550600101610be9565b5090565b90565b600081359050610c17816110c3565b92915050565b600081359050610c2c816110da565b92915050565b600082601f830112610c4357600080fd5b8135610c56610c5182610fcf565b610fa2565b91508082526020830160208301858383011115610c7257600080fd5b610c7d838284611070565b50505092915050565b600060208284031215610c9857600080fd5b6000610ca684828501610c1d565b91505092915050565b600080600080600060a08688031215610cc757600080fd5b6000610cd588828901610c1d565b9550506020610ce688828901610c08565b945050604086013567ffffffffffffffff811115610d0357600080fd5b610d0f88828901610c32565b935050606086013567ffffffffffffffff811115610d2c57600080fd5b610d3888828901610c32565b925050608086013567ffffffffffffffff811115610d5557600080fd5b610d6188828901610c32565b9150509295509295909350565b610d7781611028565b82525050565b610d8681611046565b82525050565b610d9581611046565b82525050565b6000610da682610ffb565b610db08185611006565b9350610dc081856020860161107f565b610dc9816110b2565b840191505092915050565b6000610ddf82610ffb565b610de98185611017565b9350610df981856020860161107f565b610e02816110b2565b840191505092915050565b600060e083016000830151610e256000860182610d7d565b5060208301518482036020860152610e3d8282610d9b565b91505060408301518482036040860152610e578282610d9b565b91505060608301518482036060860152610e718282610d9b565b91505060808301518482036080860152610e8b8282610d9b565b91505060a083015184820360a0860152610ea58282610d9b565b91505060c083015184820360c0860152610ebf8282610d9b565b9150508091505092915050565b6000602082019050610ee16000830184610d6e565b92915050565b600060e082019050610efc600083018a610d8c565b8181036020830152610f0e8189610dd4565b90508181036040830152610f228188610dd4565b90508181036060830152610f368187610dd4565b90508181036080830152610f4a8186610dd4565b905081810360a0830152610f5e8185610dd4565b905081810360c0830152610f728184610dd4565b905098975050505050505050565b60006020820190508181036000830152610f9a8184610e0d565b905092915050565b6000604051905081810181811067ffffffffffffffff82111715610fc557600080fd5b8060405250919050565b600067ffffffffffffffff821115610fe657600080fd5b601f19601f8301169050602081019050919050565b600081519050919050565b600082825260208201905092915050565b600082825260208201905092915050565b600061103382611050565b9050919050565b60008115159050919050565b6000819050919050565b600073ffffffffffffffffffffffffffffffffffffffff82169050919050565b82818337600083830152505050565b60005b8381101561109d578082015181840152602081019050611082565b838111156110ac576000848401525b50505050565b6000601f19601f8301169050919050565b6110cc8161103a565b81146110d757600080fd5b50565b6110e381611046565b81146110ee57600080fd5b5056fea365627a7a723158208b7d80560259c8833744d0a97dd8cae575ed1a27a545e2d442cfef946605b4676c6578706572696d656e74616cf564736f6c63430005100040",
  "source": "pragma solidity >=0.4.22 <0.8.0;\r\npragma experimental ABIEncoderV2;\r\n\r\ncontract QualityTest {\r\n    struct Building {\r\n        // Building\r\n        int256 id;\r\n        string buildingAddress;\r\n\r\n        // Battery\r\n        string operatingPermit;\r\n\r\n        // Column\r\n        string conformityCertificate;\r\n\r\n        // Elevator\r\n        string elevatorDoorTest;\r\n        string elevatorCableTest;\r\n        string elevatorBreakTest;\r\n    }\r\n\r\n    mapping(int => address) public employee;\r\n    mapping(int => Building) public buildings;\r\n\r\n    function createContract(int _id, bool isTestPassed, string memory _operatingPermit, string memory _conformityCertificate, string memory _buildingAddress) public {\r\n        if (isTestPassed) {\r\n            employee[_id] = msg.sender;\r\n\r\n            buildings[_id].id = _id;\r\n            buildings[_id].buildingAddress = _buildingAddress;\r\n            buildings[_id].operatingPermit = _operatingPermit;\r\n            buildings[_id].conformityCertificate = _conformityCertificate;\r\n            buildings[_id].elevatorDoorTest = \"Passed\";\r\n            buildings[_id].elevatorCableTest = \"Passed\";\r\n            buildings[_id].elevatorBreakTest = \"Passed\";\r\n        }\r\n    }\r\n\r\n    function getBuilding(int _id) public view returns (Building memory) {\r\n        return buildings[_id];\r\n    }\r\n}\r\n\r\n\r\n    // struct Battery {\r\n    //     string operatingPermit;\r\n    //     Column[2] cols;\r\n    // }\r\n\r\n    // struct Column {\r\n    //     string conformityCertificate;\r\n    //     int256 floorServed;\r\n    //     Elevator[4] elevs;\r\n    // }\r\n\r\n    // struct Elevator {\r\n    //     string productLine;\r\n    //     string doorTest;\r\n    //     string cableTest;\r\n    //     string breakTest;\r\n    // }\r\n\r\n    // struct BuildingAddress {\r\n    //     string buildingName;\r\n    //     string numberStreet;\r\n    //     string city;\r\n    //     string state;\r\n    // }\r\n    \r\n    // struct Building {\r\n    //     int256 id;\r\n    //     BuildingAddress addr;\r\n    //     Battery[1] bats;\r\n    // }",
  "sourcePath": "C:/Users/ricol/Documents/repo codeboxx/week-12/team-project/Rocket_Elevators_Smart_Contracts/contracts/QualityTest.sol",
  "compiler": {
    "name": "solc",
    "version": "0.5.16+commit.9c3226ce.Emscripten.clang"
  },
  "schemaVersion": "3.3.2",
  "updatedAt": "2020-12-09T15:34:48.979Z",
  "networkType": "ethereum",
  "devdoc": {
    "methods": {}
  },
  "userdoc": {
    "methods": {}
  }
}