{
  "contractName": "QualityTest",
  "abi": [
    {
      "inputs": [],
      "payable": false,
      "stateMutability": "nonpayable",
      "type": "constructor"
    },
    {
      "constant": true,
      "inputs": [
        {
          "internalType": "int256",
          "name": "",
          "type": "int256"
        }
      ],
      "name": "buildings",
      "outputs": [
        {
          "internalType": "int256",
          "name": "id",
          "type": "int256"
        },
        {
          "internalType": "string",
          "name": "buildingAddress",
          "type": "string"
        },
        {
          "internalType": "string",
          "name": "operatingPermit",
          "type": "string"
        },
        {
          "internalType": "string",
          "name": "conformityCertificate",
          "type": "string"
        },
        {
          "internalType": "string",
          "name": "floorServed",
          "type": "string"
        },
        {
          "internalType": "string",
          "name": "elevatorDoorTest",
          "type": "string"
        },
        {
          "internalType": "string",
          "name": "elevatorCableTest",
          "type": "string"
        },
        {
          "internalType": "string",
          "name": "elevatorBreakTest",
          "type": "string"
        }
      ],
      "payable": false,
      "stateMutability": "view",
      "type": "function"
    },
    {
      "constant": true,
      "inputs": [
        {
          "internalType": "int256",
          "name": "",
          "type": "int256"
        }
      ],
      "name": "employee",
      "outputs": [
        {
          "internalType": "address",
          "name": "",
          "type": "address"
        }
      ],
      "payable": false,
      "stateMutability": "view",
      "type": "function"
    },
    {
      "constant": false,
      "inputs": [
        {
          "internalType": "int256",
          "name": "_id",
          "type": "int256"
        },
        {
          "internalType": "bool",
          "name": "isTestPassed",
          "type": "bool"
        },
        {
          "internalType": "string",
          "name": "_operatingPermit",
          "type": "string"
        },
        {
          "internalType": "string",
          "name": "_conformityCertificate",
          "type": "string"
        }
      ],
      "name": "createContract",
      "outputs": [],
      "payable": false,
      "stateMutability": "nonpayable",
      "type": "function"
    },
    {
      "constant": true,
      "inputs": [
        {
          "internalType": "int256",
          "name": "_id",
          "type": "int256"
        }
      ],
      "name": "getBuilding",
      "outputs": [
        {
          "components": [
            {
              "internalType": "int256",
              "name": "id",
              "type": "int256"
            },
            {
              "internalType": "string",
              "name": "buildingAddress",
              "type": "string"
            },
            {
              "internalType": "string",
              "name": "operatingPermit",
              "type": "string"
            },
            {
              "internalType": "string",
              "name": "conformityCertificate",
              "type": "string"
            },
            {
              "internalType": "string",
              "name": "floorServed",
              "type": "string"
            },
            {
              "internalType": "string",
              "name": "elevatorDoorTest",
              "type": "string"
            },
            {
              "internalType": "string",
              "name": "elevatorCableTest",
              "type": "string"
            },
            {
              "internalType": "string",
              "name": "elevatorBreakTest",
              "type": "string"
            }
          ],
          "internalType": "struct QualityTest.Building",
          "name": "",
          "type": "tuple"
        }
      ],
      "payable": false,
      "stateMutability": "view",
      "type": "function"
    }
  ],
  "bytecode": "0x60806040523480156200001157600080fd5b50604051806101000160405280600181526020016040518060400160405280601b81526020017f373235204c65626f7572676e6575662c204cc3a97669732c205143000000000081525081526020016040518060400160405280600a81526020017f4e6f74205065726d69740000000000000000000000000000000000000000000081525081526020016040518060400160405280600e81526020017f4e6f20436572746966696361746500000000000000000000000000000000000081525081526020016040518060400160405280600181526020017f350000000000000000000000000000000000000000000000000000000000000081525081526020016040518060400160405280600a81526020017f4e6f74205061737365640000000000000000000000000000000000000000000081525081526020016040518060400160405280600a81526020017f4e6f74205061737365640000000000000000000000000000000000000000000081525081526020016040518060400160405280600a81526020017f4e6f7420506173736564000000000000000000000000000000000000000000008152508152506001600060018152602001908152602001600020600082015181600001556020820151816001019080519060200190620001fc929190620002c0565b5060408201518160020190805190602001906200021b929190620002c0565b5060608201518160030190805190602001906200023a929190620002c0565b50608082015181600401908051906020019062000259929190620002c0565b5060a082015181600501908051906020019062000278929190620002c0565b5060c082015181600601908051906020019062000297929190620002c0565b5060e0820151816007019080519060200190620002b6929190620002c0565b509050506200036f565b828054600181600116156101000203166002900490600052602060002090601f016020900481019282601f106200030357805160ff191683800117855562000334565b8280016001018555821562000334579182015b828111156200033357825182559160200191906001019062000316565b5b50905062000343919062000347565b5090565b6200036c91905b80821115620003685760008160009055506001016200034e565b5090565b90565b61123c806200037f6000396000f3fe608060405234801561001057600080fd5b506004361061004c5760003560e01c806342f7bd7514610051578063472570ab14610081578063616b8af1146100b1578063ca0932b4146100cd575b600080fd5b61006b60048036036100669190810190610d89565b610104565b6040516100789190610fbe565b60405180910390f35b61009b60048036036100969190810190610d89565b610137565b6040516100a89190611088565b60405180910390f35b6100cb60048036036100c69190810190610db2565b6105dd565b005b6100e760048036036100e29190810190610d89565b6107b1565b6040516100fb989796959493929190610fd9565b60405180910390f35b60006020528060005260406000206000915054906101000a900473ffffffffffffffffffffffffffffffffffffffff1681565b61013f610c21565b600160008381526020019081526020016000206040518061010001604052908160008201548152602001600182018054600181600116156101000203166002900480601f0160208091040260200160405190810160405280929190818152602001828054600181600116156101000203166002900480156102015780601f106101d657610100808354040283529160200191610201565b820191906000526020600020905b8154815290600101906020018083116101e457829003601f168201915b50505050508152602001600282018054600181600116156101000203166002900480601f0160208091040260200160405190810160405280929190818152602001828054600181600116156101000203166002900480156102a35780601f10610278576101008083540402835291602001916102a3565b820191906000526020600020905b81548152906001019060200180831161028657829003601f168201915b50505050508152602001600382018054600181600116156101000203166002900480601f0160208091040260200160405190810160405280929190818152602001828054600181600116156101000203166002900480156103455780601f1061031a57610100808354040283529160200191610345565b820191906000526020600020905b81548152906001019060200180831161032857829003601f168201915b50505050508152602001600482018054600181600116156101000203166002900480601f0160208091040260200160405190810160405280929190818152602001828054600181600116156101000203166002900480156103e75780601f106103bc576101008083540402835291602001916103e7565b820191906000526020600020905b8154815290600101906020018083116103ca57829003601f168201915b50505050508152602001600582018054600181600116156101000203166002900480601f0160208091040260200160405190810160405280929190818152602001828054600181600116156101000203166002900480156104895780601f1061045e57610100808354040283529160200191610489565b820191906000526020600020905b81548152906001019060200180831161046c57829003601f168201915b50505050508152602001600682018054600181600116156101000203166002900480601f01602080910402602001604051908101604052809291908181526020018280546001816001161561010002031660029004801561052b5780601f106105005761010080835404028352916020019161052b565b820191906000526020600020905b81548152906001019060200180831161050e57829003601f168201915b50505050508152602001600782018054600181600116156101000203166002900480601f0160208091040260200160405190810160405280929190818152602001828054600181600116156101000203166002900480156105cd5780601f106105a2576101008083540402835291602001916105cd565b820191906000526020600020905b8154815290600101906020018083116105b057829003601f168201915b5050505050815250509050919050565b3360008086815260200190815260200160002060006101000a81548173ffffffffffffffffffffffffffffffffffffffff021916908373ffffffffffffffffffffffffffffffffffffffff16021790555081600160008681526020019081526020016000206002019080519060200190610658929190610c66565b5080600160008681526020019081526020016000206003019080519060200190610683929190610c66565b5082156107ab576040518060400160405280600681526020017f50617373656400000000000000000000000000000000000000000000000000008152506001600086815260200190815260200160002060010190805190602001906106e9929190610c66565b506040518060400160405280600681526020017f5061737365640000000000000000000000000000000000000000000000000000815250600160008681526020019081526020016000206002019080519060200190610749929190610c66565b506040518060400160405280600681526020017f50617373656400000000000000000000000000000000000000000000000000008152506001600086815260200190815260200160002060070190805190602001906107a9929190610c66565b505b50505050565b6001602052806000526040600020600091509050806000015490806001018054600181600116156101000203166002900480601f0160208091040260200160405190810160405280929190818152602001828054600181600116156101000203166002900480156108635780601f1061083857610100808354040283529160200191610863565b820191906000526020600020905b81548152906001019060200180831161084657829003601f168201915b505050505090806002018054600181600116156101000203166002900480601f0160208091040260200160405190810160405280929190818152602001828054600181600116156101000203166002900480156109015780601f106108d657610100808354040283529160200191610901565b820191906000526020600020905b8154815290600101906020018083116108e457829003601f168201915b505050505090806003018054600181600116156101000203166002900480601f01602080910402602001604051908101604052809291908181526020018280546001816001161561010002031660029004801561099f5780601f106109745761010080835404028352916020019161099f565b820191906000526020600020905b81548152906001019060200180831161098257829003601f168201915b505050505090806004018054600181600116156101000203166002900480601f016020809104026020016040519081016040528092919081815260200182805460018160011615610100020316600290048015610a3d5780601f10610a1257610100808354040283529160200191610a3d565b820191906000526020600020905b815481529060010190602001808311610a2057829003601f168201915b505050505090806005018054600181600116156101000203166002900480601f016020809104026020016040519081016040528092919081815260200182805460018160011615610100020316600290048015610adb5780601f10610ab057610100808354040283529160200191610adb565b820191906000526020600020905b815481529060010190602001808311610abe57829003601f168201915b505050505090806006018054600181600116156101000203166002900480601f016020809104026020016040519081016040528092919081815260200182805460018160011615610100020316600290048015610b795780601f10610b4e57610100808354040283529160200191610b79565b820191906000526020600020905b815481529060010190602001808311610b5c57829003601f168201915b505050505090806007018054600181600116156101000203166002900480601f016020809104026020016040519081016040528092919081815260200182805460018160011615610100020316600290048015610c175780601f10610bec57610100808354040283529160200191610c17565b820191906000526020600020905b815481529060010190602001808311610bfa57829003601f168201915b5050505050905088565b60405180610100016040528060008152602001606081526020016060815260200160608152602001606081526020016060815260200160608152602001606081525090565b828054600181600116156101000203166002900490600052602060002090601f016020900481019282601f10610ca757805160ff1916838001178555610cd5565b82800160010185558215610cd5579182015b82811115610cd4578251825591602001919060010190610cb9565b5b509050610ce29190610ce6565b5090565b610d0891905b80821115610d04576000816000905550600101610cec565b5090565b90565b600081359050610d1a816111cb565b92915050565b600081359050610d2f816111e2565b92915050565b600082601f830112610d4657600080fd5b8135610d59610d54826110d7565b6110aa565b91508082526020830160208301858383011115610d7557600080fd5b610d80838284611178565b50505092915050565b600060208284031215610d9b57600080fd5b6000610da984828501610d20565b91505092915050565b60008060008060808587031215610dc857600080fd5b6000610dd687828801610d20565b9450506020610de787828801610d0b565b935050604085013567ffffffffffffffff811115610e0457600080fd5b610e1087828801610d35565b925050606085013567ffffffffffffffff811115610e2d57600080fd5b610e3987828801610d35565b91505092959194509250565b610e4e81611130565b82525050565b610e5d8161114e565b82525050565b610e6c8161114e565b82525050565b6000610e7d82611103565b610e87818561110e565b9350610e97818560208601611187565b610ea0816111ba565b840191505092915050565b6000610eb682611103565b610ec0818561111f565b9350610ed0818560208601611187565b610ed9816111ba565b840191505092915050565b600061010083016000830151610efd6000860182610e54565b5060208301518482036020860152610f158282610e72565b91505060408301518482036040860152610f2f8282610e72565b91505060608301518482036060860152610f498282610e72565b91505060808301518482036080860152610f638282610e72565b91505060a083015184820360a0860152610f7d8282610e72565b91505060c083015184820360c0860152610f978282610e72565b91505060e083015184820360e0860152610fb18282610e72565b9150508091505092915050565b6000602082019050610fd36000830184610e45565b92915050565b600061010082019050610fef600083018b610e63565b8181036020830152611001818a610eab565b905081810360408301526110158189610eab565b905081810360608301526110298188610eab565b9050818103608083015261103d8187610eab565b905081810360a08301526110518186610eab565b905081810360c08301526110658185610eab565b905081810360e08301526110798184610eab565b90509998505050505050505050565b600060208201905081810360008301526110a28184610ee4565b905092915050565b6000604051905081810181811067ffffffffffffffff821117156110cd57600080fd5b8060405250919050565b600067ffffffffffffffff8211156110ee57600080fd5b601f19601f8301169050602081019050919050565b600081519050919050565b600082825260208201905092915050565b600082825260208201905092915050565b600061113b82611158565b9050919050565b60008115159050919050565b6000819050919050565b600073ffffffffffffffffffffffffffffffffffffffff82169050919050565b82818337600083830152505050565b60005b838110156111a557808201518184015260208101905061118a565b838111156111b4576000848401525b50505050565b6000601f19601f8301169050919050565b6111d481611142565b81146111df57600080fd5b50565b6111eb8161114e565b81146111f657600080fd5b5056fea365627a7a72315820da3f9b9bd19a661d9b9342d703987b2ae69a846d05b9c772179e9c13dc697e7a6c6578706572696d656e74616cf564736f6c63430005100040",
  "source": "pragma solidity >=0.4.22 <0.8.0;\r\npragma experimental ABIEncoderV2;\r\n\r\ncontract QualityTest {\r\n    struct Building {\r\n        // Client\r\n        // string clientName;\r\n\r\n        // Building\r\n        int256 id;\r\n        string buildingAddress;\r\n\r\n        // Battery\r\n        string operatingPermit;\r\n\r\n        // Column\r\n        string conformityCertificate;\r\n        string floorServed;\r\n\r\n        // Elevator\r\n        string elevatorDoorTest;\r\n        string elevatorCableTest;\r\n        string elevatorBreakTest;\r\n    }\r\n\r\n\r\n    mapping(int => address) public employee;\r\n    mapping(int => Building) public buildings;\r\n\r\n    constructor() public {\r\n        buildings[1] = Building({\r\n            id: 1,\r\n            buildingAddress: \"725 Lebourgneuf, Lévis, QC\",\r\n\r\n            operatingPermit: \"Not Permit\",\r\n\r\n            conformityCertificate: \"No Certificate\",\r\n            floorServed: \"5\",\r\n\r\n            elevatorDoorTest: \"Not Passed\",\r\n            elevatorCableTest: \"Not Passed\",\r\n            elevatorBreakTest: \"Not Passed\"\r\n        });\r\n    }\r\n\r\n    // function addBuilding(int _id, string[9]) public {\r\n        // buildings[_id].clientName               = string[1];\r\n        // buildings[_id].buildingAddress          = string[2];\r\n        // buildings[_id].operatingPermit          = string[3];\r\n        // buildings[_id].conformityCertificate    = string[4];\r\n        // buildings[_id].floorServed              = string[5];\r\n        // buildings[_id].elevatorDoorTest         = string[6];\r\n        // buildings[_id].elevatorCableTest        = string[7];\r\n        // buildings[_id].elevatorBreakTest        = string[8];\r\n    // }\r\n\r\n    function createContract(int _id, bool isTestPassed, string memory _operatingPermit, string memory _conformityCertificate) public {\r\n        employee[_id] = msg.sender;\r\n        buildings[_id].operatingPermit = _operatingPermit;\r\n        buildings[_id].conformityCertificate = _conformityCertificate;\r\n\r\n        if (isTestPassed) {\r\n            buildings[_id].buildingAddress = \"Passed\";\r\n            buildings[_id].operatingPermit = \"Passed\";\r\n            buildings[_id].elevatorBreakTest = \"Passed\";\r\n        }\r\n    }\r\n\r\n    function getBuilding(int _id) public view returns (Building memory) {\r\n        return buildings[_id];\r\n    }\r\n}\r\n\r\n\r\n    // struct Battery {\r\n    //     string operatingPermit;\r\n    //     Column[2] cols;\r\n    // }\r\n\r\n    // struct Column {\r\n    //     string conformityCertificate;\r\n    //     int256 floorServed;\r\n    //     Elevator[4] elevs;\r\n    // }\r\n\r\n    // struct Elevator {\r\n    //     string productLine;\r\n    //     string doorTest;\r\n    //     string cableTest;\r\n    //     string breakTest;\r\n    // }\r\n\r\n    // struct BuildingAddress {\r\n    //     string buildingName;\r\n    //     string numberStreet;\r\n    //     string city;\r\n    //     string state;\r\n    // }\r\n    \r\n    // struct Building {\r\n    //     int256 id;\r\n    //     BuildingAddress addr;\r\n    //     Battery[1] bats;\r\n    // }",
  "sourcePath": "C:/Users/ricol/Documents/repo codeboxx/week-12/team-project/Rocket_Elevators_Smart_Contracts/contracts/QualityTest.sol",
  "compiler": {
    "name": "solc",
    "version": "0.5.16+commit.9c3226ce.Emscripten.clang"
  },
  "schemaVersion": "3.3.2",
  "updatedAt": "2020-12-08T14:04:53.548Z",
  "networkType": "ethereum",
  "devdoc": {
    "methods": {}
  },
  "userdoc": {
    "methods": {}
  }
}