{
  "contractName": "QualityTest",
  "abi": [
    {
      "constant": true,
      "inputs": [
        {
          "internalType": "int256",
          "name": "",
          "type": "int256"
        }
      ],
      "name": "buildings",
      "outputs": [
        {
          "internalType": "address",
          "name": "employee",
          "type": "address"
        },
        {
          "internalType": "int256",
          "name": "id",
          "type": "int256"
        },
        {
          "internalType": "string",
          "name": "buildingAddress",
          "type": "string"
        },
        {
          "internalType": "string",
          "name": "operatingPermit",
          "type": "string"
        },
        {
          "internalType": "string",
          "name": "conformityCertificate",
          "type": "string"
        },
        {
          "internalType": "string",
          "name": "elevatorDoorTest",
          "type": "string"
        },
        {
          "internalType": "string",
          "name": "elevatorCableTest",
          "type": "string"
        },
        {
          "internalType": "string",
          "name": "elevatorBreakTest",
          "type": "string"
        }
      ],
      "payable": false,
      "stateMutability": "view",
      "type": "function"
    },
    {
      "constant": false,
      "inputs": [
        {
          "internalType": "int256",
          "name": "_id",
          "type": "int256"
        },
        {
          "internalType": "bool",
          "name": "isTestPassed",
          "type": "bool"
        },
        {
          "internalType": "string",
          "name": "_operatingPermit",
          "type": "string"
        },
        {
          "internalType": "string",
          "name": "_conformityCertificate",
          "type": "string"
        },
        {
          "internalType": "string",
          "name": "_buildingAddress",
          "type": "string"
        }
      ],
      "name": "secure",
      "outputs": [],
      "payable": false,
      "stateMutability": "nonpayable",
      "type": "function"
    },
    {
      "constant": true,
      "inputs": [
        {
          "internalType": "int256",
          "name": "_id",
          "type": "int256"
        }
      ],
      "name": "getBuilding",
      "outputs": [
        {
          "components": [
            {
              "internalType": "address",
              "name": "employee",
              "type": "address"
            },
            {
              "internalType": "int256",
              "name": "id",
              "type": "int256"
            },
            {
              "internalType": "string",
              "name": "buildingAddress",
              "type": "string"
            },
            {
              "internalType": "string",
              "name": "operatingPermit",
              "type": "string"
            },
            {
              "internalType": "string",
              "name": "conformityCertificate",
              "type": "string"
            },
            {
              "internalType": "string",
              "name": "elevatorDoorTest",
              "type": "string"
            },
            {
              "internalType": "string",
              "name": "elevatorCableTest",
              "type": "string"
            },
            {
              "internalType": "string",
              "name": "elevatorBreakTest",
              "type": "string"
            }
          ],
          "internalType": "struct QualityTest.Building",
          "name": "",
          "type": "tuple"
        }
      ],
      "payable": false,
      "stateMutability": "view",
      "type": "function"
    },
    {
      "constant": true,
      "inputs": [
        {
          "internalType": "int256[]",
          "name": "_ids",
          "type": "int256[]"
        }
      ],
      "name": "getBuildings",
      "outputs": [
        {
          "components": [
            {
              "internalType": "address",
              "name": "employee",
              "type": "address"
            },
            {
              "internalType": "int256",
              "name": "id",
              "type": "int256"
            },
            {
              "internalType": "string",
              "name": "buildingAddress",
              "type": "string"
            },
            {
              "internalType": "string",
              "name": "operatingPermit",
              "type": "string"
            },
            {
              "internalType": "string",
              "name": "conformityCertificate",
              "type": "string"
            },
            {
              "internalType": "string",
              "name": "elevatorDoorTest",
              "type": "string"
            },
            {
              "internalType": "string",
              "name": "elevatorCableTest",
              "type": "string"
            },
            {
              "internalType": "string",
              "name": "elevatorBreakTest",
              "type": "string"
            }
          ],
          "internalType": "struct QualityTest.Building[30]",
          "name": "",
          "type": "tuple[30]"
        }
      ],
      "payable": false,
      "stateMutability": "view",
      "type": "function"
    }
  ],
  "bytecode": "0x608060405234801561001057600080fd5b506119a8806100206000396000f3fe608060405234801561001057600080fd5b506004361061004c5760003560e01c8063472570ab14610051578063686c11621461008157806389eda5cf1461009d578063ca0932b4146100cd575b600080fd5b61006b60048036036100669190810190611310565b610104565b604051610078919061179f565b60405180910390f35b61009b60048036036100969190810190611339565b61055d565b005b6100b760048036036100b291908101906112cf565b6107a0565b6040516100c4919061177d565b60405180910390f35b6100e760048036036100e29190810190611310565b610c4d565b6040516100fb9897969594939291906116d5565b60405180910390f35b61010c611045565b600080838152602001908152602001600020604051806101000160405290816000820160009054906101000a900473ffffffffffffffffffffffffffffffffffffffff1673ffffffffffffffffffffffffffffffffffffffff1673ffffffffffffffffffffffffffffffffffffffff16815260200160018201548152602001600282018054600181600116156101000203166002900480601f0160208091040260200160405190810160405280929190818152602001828054600181600116156101000203166002900480156102235780601f106101f857610100808354040283529160200191610223565b820191906000526020600020905b81548152906001019060200180831161020657829003601f168201915b50505050508152602001600382018054600181600116156101000203166002900480601f0160208091040260200160405190810160405280929190818152602001828054600181600116156101000203166002900480156102c55780601f1061029a576101008083540402835291602001916102c5565b820191906000526020600020905b8154815290600101906020018083116102a857829003601f168201915b50505050508152602001600482018054600181600116156101000203166002900480601f0160208091040260200160405190810160405280929190818152602001828054600181600116156101000203166002900480156103675780601f1061033c57610100808354040283529160200191610367565b820191906000526020600020905b81548152906001019060200180831161034a57829003601f168201915b50505050508152602001600582018054600181600116156101000203166002900480601f0160208091040260200160405190810160405280929190818152602001828054600181600116156101000203166002900480156104095780601f106103de57610100808354040283529160200191610409565b820191906000526020600020905b8154815290600101906020018083116103ec57829003601f168201915b50505050508152602001600682018054600181600116156101000203166002900480601f0160208091040260200160405190810160405280929190818152602001828054600181600116156101000203166002900480156104ab5780601f10610480576101008083540402835291602001916104ab565b820191906000526020600020905b81548152906001019060200180831161048e57829003601f168201915b50505050508152602001600782018054600181600116156101000203166002900480601f01602080910402602001604051908101604052809291908181526020018280546001816001161561010002031660029004801561054d5780601f106105225761010080835404028352916020019161054d565b820191906000526020600020905b81548152906001019060200180831161053057829003601f168201915b5050505050815250509050919050565b83156107995761056b611045565b33816000019073ffffffffffffffffffffffffffffffffffffffff16908173ffffffffffffffffffffffffffffffffffffffff1681525050858160200181815250508181604001819052508381606001819052508281608001819052506040518060400160405280600681526020017f50617373656400000000000000000000000000000000000000000000000000008152508160a001819052506040518060400160405280600681526020017f50617373656400000000000000000000000000000000000000000000000000008152508160c001819052506040518060400160405280600681526020017f50617373656400000000000000000000000000000000000000000000000000008152508160e001819052508060008088815260200190815260200160002060008201518160000160006101000a81548173ffffffffffffffffffffffffffffffffffffffff021916908373ffffffffffffffffffffffffffffffffffffffff1602179055506020820151816001015560408201518160020190805190602001906107029291906110a0565b50606082015181600301908051906020019061071f9291906110a0565b50608082015181600401908051906020019061073c9291906110a0565b5060a08201518160050190805190602001906107599291906110a0565b5060c08201518160060190805190602001906107769291906110a0565b5060e08201518160070190805190602001906107939291906110a0565b50905050505b5050505050565b6107a8611120565b6107b0611120565b60008090505b601e811015610c435760608490506000808284815181106107d357fe5b60200260200101518152602001908152602001600020604051806101000160405290816000820160009054906101000a900473ffffffffffffffffffffffffffffffffffffffff1673ffffffffffffffffffffffffffffffffffffffff1673ffffffffffffffffffffffffffffffffffffffff16815260200160018201548152602001600282018054600181600116156101000203166002900480601f0160208091040260200160405190810160405280929190818152602001828054600181600116156101000203166002900480156108ee5780601f106108c3576101008083540402835291602001916108ee565b820191906000526020600020905b8154815290600101906020018083116108d157829003601f168201915b50505050508152602001600382018054600181600116156101000203166002900480601f0160208091040260200160405190810160405280929190818152602001828054600181600116156101000203166002900480156109905780601f1061096557610100808354040283529160200191610990565b820191906000526020600020905b81548152906001019060200180831161097357829003601f168201915b50505050508152602001600482018054600181600116156101000203166002900480601f016020809104026020016040519081016040528092919081815260200182805460018160011615610100020316600290048015610a325780601f10610a0757610100808354040283529160200191610a32565b820191906000526020600020905b815481529060010190602001808311610a1557829003601f168201915b50505050508152602001600582018054600181600116156101000203166002900480601f016020809104026020016040519081016040528092919081815260200182805460018160011615610100020316600290048015610ad45780601f10610aa957610100808354040283529160200191610ad4565b820191906000526020600020905b815481529060010190602001808311610ab757829003601f168201915b50505050508152602001600682018054600181600116156101000203166002900480601f016020809104026020016040519081016040528092919081815260200182805460018160011615610100020316600290048015610b765780601f10610b4b57610100808354040283529160200191610b76565b820191906000526020600020905b815481529060010190602001808311610b5957829003601f168201915b50505050508152602001600782018054600181600116156101000203166002900480601f016020809104026020016040519081016040528092919081815260200182805460018160011615610100020316600290048015610c185780601f10610bed57610100808354040283529160200191610c18565b820191906000526020600020905b815481529060010190602001808311610bfb57829003601f168201915b5050505050815250508383601e8110610c2d57fe5b60200201819052505080806001019150506107b6565b5080915050919050565b60006020528060005260406000206000915090508060000160009054906101000a900473ffffffffffffffffffffffffffffffffffffffff1690806001015490806002018054600181600116156101000203166002900480601f016020809104026020016040519081016040528092919081815260200182805460018160011615610100020316600290048015610d255780601f10610cfa57610100808354040283529160200191610d25565b820191906000526020600020905b815481529060010190602001808311610d0857829003601f168201915b505050505090806003018054600181600116156101000203166002900480601f016020809104026020016040519081016040528092919081815260200182805460018160011615610100020316600290048015610dc35780601f10610d9857610100808354040283529160200191610dc3565b820191906000526020600020905b815481529060010190602001808311610da657829003601f168201915b505050505090806004018054600181600116156101000203166002900480601f016020809104026020016040519081016040528092919081815260200182805460018160011615610100020316600290048015610e615780601f10610e3657610100808354040283529160200191610e61565b820191906000526020600020905b815481529060010190602001808311610e4457829003601f168201915b505050505090806005018054600181600116156101000203166002900480601f016020809104026020016040519081016040528092919081815260200182805460018160011615610100020316600290048015610eff5780601f10610ed457610100808354040283529160200191610eff565b820191906000526020600020905b815481529060010190602001808311610ee257829003601f168201915b505050505090806006018054600181600116156101000203166002900480601f016020809104026020016040519081016040528092919081815260200182805460018160011615610100020316600290048015610f9d5780601f10610f7257610100808354040283529160200191610f9d565b820191906000526020600020905b815481529060010190602001808311610f8057829003601f168201915b505050505090806007018054600181600116156101000203166002900480601f01602080910402602001604051908101604052809291908181526020018280546001816001161561010002031660029004801561103b5780601f106110105761010080835404028352916020019161103b565b820191906000526020600020905b81548152906001019060200180831161101e57829003601f168201915b5050505050905088565b604051806101000160405280600073ffffffffffffffffffffffffffffffffffffffff168152602001600081526020016060815260200160608152602001606081526020016060815260200160608152602001606081525090565b828054600181600116156101000203166002900490600052602060002090601f016020900481019282601f106110e157805160ff191683800117855561110f565b8280016001018555821561110f579182015b8281111561110e5782518255916020019190600101906110f3565b5b50905061111c919061114e565b5090565b604051806103c00160405280601e905b611138611173565b8152602001906001900390816111305790505090565b61117091905b8082111561116c576000816000905550600101611154565b5090565b90565b604051806101000160405280600073ffffffffffffffffffffffffffffffffffffffff168152602001600081526020016060815260200160608152602001606081526020016060815260200160608152602001606081525090565b600082601f8301126111df57600080fd5b81356111f26111ed826117ee565b6117c1565b9150818183526020840193506020810190508385602084028201111561121757600080fd5b60005b83811015611247578161122d8882611266565b84526020840193506020830192505060018101905061121a565b5050505092915050565b60008135905061126081611937565b92915050565b6000813590506112758161194e565b92915050565b600082601f83011261128c57600080fd5b813561129f61129a82611816565b6117c1565b915080825260208301602083018583830111156112bb57600080fd5b6112c68382846118e4565b50505092915050565b6000602082840312156112e157600080fd5b600082013567ffffffffffffffff8111156112fb57600080fd5b611307848285016111ce565b91505092915050565b60006020828403121561132257600080fd5b600061133084828501611266565b91505092915050565b600080600080600060a0868803121561135157600080fd5b600061135f88828901611266565b955050602061137088828901611251565b945050604086013567ffffffffffffffff81111561138d57600080fd5b6113998882890161127b565b935050606086013567ffffffffffffffff8111156113b657600080fd5b6113c28882890161127b565b925050608086013567ffffffffffffffff8111156113df57600080fd5b6113eb8882890161127b565b9150509295509295909350565b60006114048383611602565b905092915050565b6114158161189c565b82525050565b6114248161189c565b82525050565b60006114358261184c565b61143f818561186f565b93508360208202850161145185611842565b8060005b8581101561148d578484038952815161146e85826113f8565b945061147983611862565b925060208a01995050600181019050611455565b50829750879550505050505092915050565b6114a8816118ba565b82525050565b6114b7816118ba565b82525050565b60006114c882611857565b6114d2818561187a565b93506114e28185602086016118f3565b6114eb81611926565b840191505092915050565b600061150182611857565b61150b818561188b565b935061151b8185602086016118f3565b61152481611926565b840191505092915050565b600061010083016000830151611548600086018261140c565b50602083015161155b602086018261149f565b506040830151848203604086015261157382826114bd565b9150506060830151848203606086015261158d82826114bd565b915050608083015184820360808601526115a782826114bd565b91505060a083015184820360a08601526115c182826114bd565b91505060c083015184820360c08601526115db82826114bd565b91505060e083015184820360e08601526115f582826114bd565b9150508091505092915050565b60006101008301600083015161161b600086018261140c565b50602083015161162e602086018261149f565b506040830151848203604086015261164682826114bd565b9150506060830151848203606086015261166082826114bd565b9150506080830151848203608086015261167a82826114bd565b91505060a083015184820360a086015261169482826114bd565b91505060c083015184820360c08601526116ae82826114bd565b91505060e083015184820360e08601526116c882826114bd565b9150508091505092915050565b6000610100820190506116eb600083018b61141b565b6116f8602083018a6114ae565b818103604083015261170a81896114f6565b9050818103606083015261171e81886114f6565b9050818103608083015261173281876114f6565b905081810360a083015261174681866114f6565b905081810360c083015261175a81856114f6565b905081810360e083015261176e81846114f6565b90509998505050505050505050565b60006020820190508181036000830152611797818461142a565b905092915050565b600060208201905081810360008301526117b9818461152f565b905092915050565b6000604051905081810181811067ffffffffffffffff821117156117e457600080fd5b8060405250919050565b600067ffffffffffffffff82111561180557600080fd5b602082029050602081019050919050565b600067ffffffffffffffff82111561182d57600080fd5b601f19601f8301169050602081019050919050565b6000819050919050565b6000601e9050919050565b600081519050919050565b6000602082019050919050565b600081905092915050565b600082825260208201905092915050565b600082825260208201905092915050565b60006118a7826118c4565b9050919050565b60008115159050919050565b6000819050919050565b600073ffffffffffffffffffffffffffffffffffffffff82169050919050565b82818337600083830152505050565b60005b838110156119115780820151818401526020810190506118f6565b83811115611920576000848401525b50505050565b6000601f19601f8301169050919050565b611940816118ae565b811461194b57600080fd5b50565b611957816118ba565b811461196257600080fd5b5056fea365627a7a7231582065e848ed8fdc8a8674021823409da19237fa2640d299730458ea3ce4a4e21cb86c6578706572696d656e74616cf564736f6c63430005100040",
  "source": "pragma solidity >=0.4.22 <0.8.0;\r\npragma experimental ABIEncoderV2;\r\n\r\ncontract QualityTest {\r\n    struct Building {\r\n        // Client\r\n        address employee;\r\n\r\n        // Building\r\n        int256 id;\r\n        string buildingAddress;\r\n\r\n        // Battery\r\n        string operatingPermit;\r\n\r\n        // Column\r\n        string conformityCertificate;\r\n\r\n        // Elevator\r\n        string elevatorDoorTest;\r\n        string elevatorCableTest;\r\n        string elevatorBreakTest;\r\n    }\r\n\r\n    mapping(int => Building) public buildings;\r\n\r\n    function secure(\r\n        int _id,\r\n        bool isTestPassed,\r\n        string memory _operatingPermit,\r\n        string memory _conformityCertificate,\r\n        string memory _buildingAddress\r\n    ) public {\r\n        if (isTestPassed) {\r\n            Building memory build;\r\n            build.employee = msg.sender;\r\n\r\n            build.id = _id;\r\n\r\n            build.buildingAddress = _buildingAddress;\r\n\r\n            build.operatingPermit = _operatingPermit;\r\n\r\n            build.conformityCertificate = _conformityCertificate;\r\n\r\n            build.elevatorDoorTest = \"Passed\";\r\n            build.elevatorCableTest = \"Passed\";\r\n            build.elevatorBreakTest = \"Passed\";\r\n\r\n            buildings[_id] = build;\r\n        }\r\n    }\r\n\r\n    function getBuilding(int _id) public view returns (Building memory) {\r\n        return buildings[_id];\r\n    }\r\n\r\n    function getBuildings(int[] memory _ids) public view returns (Building[30] memory) {\r\n        Building[30] memory buildingList; \r\n\r\n        for (uint i = 0; i < 30; i++) {\r\n            int[] memory index = _ids;\r\n            buildingList[i] = buildings[index[i]];\r\n        }\r\n\r\n        return buildingList;\r\n    }\r\n}\r\n\r\n\r\n    // struct Battery {\r\n    //     string operatingPermit;\r\n    //     Column[2] cols;\r\n    // }\r\n\r\n    // struct Column {\r\n    //     string conformityCertificate;\r\n    //     int256 floorServed;\r\n    //     Elevator[4] elevs;\r\n    // }\r\n\r\n    // struct Elevator {\r\n    //     string productLine;\r\n    //     string doorTest;\r\n    //     string cableTest;\r\n    //     string breakTest;\r\n    // }\r\n\r\n    // struct BuildingAddress {\r\n    //     string buildingName;\r\n    //     string numberStreet;\r\n    //     string city;\r\n    //     string state;\r\n    // }\r\n    \r\n    // struct Building {\r\n    //     int256 id;\r\n    //     BuildingAddress addr;\r\n    //     Battery[1] bats;\r\n    // }",
  "sourcePath": "C:/Users/ricol/Documents/repo codeboxx/week-12/team-project/Rocket_Elevators_Smart_Contracts/contracts/QualityTest.sol",
  "compiler": {
    "name": "solc",
    "version": "0.5.16+commit.9c3226ce.Emscripten.clang"
  },
  "schemaVersion": "3.3.2",
  "updatedAt": "2020-12-09T00:22:03.460Z",
  "devdoc": {
    "methods": {}
  },
  "userdoc": {
    "methods": {}
  }
}